:020000040800F2
:10000000B00600206D0100087501000877010008A6
:10001000790100087B0100087D0100080000000054
:100020000000000000000000000000007F01000848
:10003000810100080000000083010008ED030008B2
:100040008701000887010008870100088701000870
:100050008701000887010008870100088701000860
:100060008701000887010008870100088701000850
:100070008701000887010008870100088701000840
:100080008701000887010008870100088701000830
:100090008701000887010008870100088701000820
:1000A0008701000887010008870100088701000810
:1000B0008701000887010008870100088701000800
:1000C00087010008870100088701000887010008F0
:1000D00087010008870100088701000887010008E0
:1000E00087010008870100088701000800F002F876
:1000F00000F02CF80AA090E8000C82448344AAF196
:100100000107DA4501D100F021F8AFF2090EBAE893
:100110000F0013F0010F18BFFB1A43F0010318473B
:100120008806000098060000002300240025002611
:10013000103A28BF78C1FBD8520728BF30C148BF4A
:100140000B6070471FB51FBD10B510BD00F031F832
:100150001146FFF7F7FF00F08DFA00F04FF803B4F7
:10016000FFF7F2FF03BC00F057F800000948804792
:1001700009480047FEE7FEE7FEE7FEE7FEE7FEE789
:10018000FEE7FEE7FEE7FEE704480549054A064BA1
:100190007047000001040008ED000008B0000020D6
:1001A000B0060020B0020020B00200207047704767
:1001B0007047754600F02CF8AE4605006946534678
:1001C00020F00700854618B020B5FFF7DDFFBDE839
:1001D00020404FF000064FF000074FF000084FF0AE
:1001E000000BAC46ACE8C009ACE8C009ACE8C009FB
:1001F000ACE8C00921F007018D46704710B50446F0
:10020000AFF300802046BDE81040FFF7A8BF000014
:10021000004870470000002001491820ABBEFEE7EF
:100220002600020070472DE9F04391F8039009F091
:100230000F085FEAC96344BF8B7848EA030809885E
:100240000B0621D0046800254FF0010E4FF00F0C73
:100250000027082F17D00EFA07F30B4210D00CFA24
:1002600005F208FA05F624EA020242EA0604B9F1A8
:10027000480F04D0B9F1280F08BF436100E00361C3
:1002800004350137E5E70460B1F5807F23D3446886
:1002900000254FF4807E4FF00F0C0027082F19D057
:1002A0000EFA07F606EA0102B24210D10CFA05F383
:1002B00008FA05F224EA030343EA0204B9F1480FFD
:1002C00004D0B9F1280F08BF466100E0066104358B
:1002D0000137E3E74460BDE8F0830000E0B5034880
:1002E000019001A800F004F88CBD00BF05000001DA
:1002F00070B5C2781149A2B1114A07231268457836
:1003000023EA12220F238678D340C2F10402047834
:10031000334005FA02F21A4312010B1983F8002345
:1003200000E080310078012300F01F0203FA02F29E
:10033000C0F3421041F8202070BD00BF00E100E092
:100340000CED00E0044A002911680CBF21EA00000E
:1003500008431060704700BF181002400149086050
:10036000704700BF4C00424210B518490A6802F0BD
:100370000C03174A082B0BD10B68C3F383430C689B
:100380000233E40302D50C68A40300D5114A5A4392
:1003900002600B68104CC3F30313E35CDA40426065
:1003A0000B68C3F30223E35C22FA03F383600B6858
:1003B000C3F3C223E35CDA40C2600968074BC1F3B0
:1003C0008131595CB2FBF1F1016110BD04100240B2
:1003D00000127A0000093D00980700089407000801
:1003E00001490870704700BF0710024003480168C8
:1003F00011B1016801390160704700BFAC000020F5
:1004000082B03448344A016841F00101016041681A
:10041000114041600168314A11400160016821F4D6
:1004200080210160416821F4FE0141604FF41F0109
:100430008160002101910091016841F480310160E7
:10044000016801F400310091019901310191009995
:1004500019B90199B1F5A06FF2D10168890354BFB0
:10046000002101210091009901292CD11C490A6821
:1004700042F010020A600A6822F003020A600A6869
:100480000A6041684160416841604168416041687B
:1004900021F47C114160416841F498114160016888
:1004A00041F08071016001688901FCD5416821F04B
:1004B00003014160416841F002014160416801F07F
:1004C0000C010829FAD107484FF00061016002B021
:1004D000704700BF001002400000FFF8FFFFF6FE6B
:1004E0000020024008ED00E0F0B585B0054644F27A
:1004F00004000121FFF726FF5B4C1348A4F540568A
:1005000004AF049030463946FFF78DFE0F48394658
:1005100004903046FFF787FE00204FF44021ADF8ED
:100520000C000095CDE901016946204600F04EF827
:10053000204640F22551012200F031F820460121E9
:1005400000F01FF805B0F0BD00020318000403041A
:10055000B0B5454D04462846402100F01BF8002860
:10056000F9D028462146BDE8B04000F07FB800BF72
:1005700010B50446207818B1FFF7EAFF0134F9E717
:1005800010BD8289002942F4005308BF22F40053B1
:10059000838170470088084018BF0120704710B55C
:1005A00001F01F03012404FA03F3C1F342141421E0
:1005B000022C08BF1021012C08BF0C21002A425830
:1005C0000CBF9A431A43425010BD000070B586B06C
:1005D00004460D46C888218A01AE21F440510843E3
:1005E0002082A0894EF6F3110840A9880843298982
:1005F000084369890843A081A889A18A21F4407130
:100600000843A0823046FFF7AFFE174906F1080005
:100610008C4208BF06F10C00006819214843B4F968
:100620000C100222002948BF012229686FF06303E1
:100630009140B0FBF1F06421B0FBF1F2042502FB24
:100640000300B4F90C30002B48BF0325A84032301A
:10065000B0FBF1F00F21002B48BF0721084040EA12
:100660000210208106B070BD003801406FF35F2199
:1006700081807047FFF7C4FE384E06F13800FFF75F
:1006800073FE0120FFF76AFE354F386840F0040022
:1006900038603448016841F00B010160016821F0C5
:1006A000040101600620FFF79BFEFFF717FE4FF4E1
:1006B000E130FFF719FF2CA0FFF75AFF2E4C35460B
:1006C00045F8044F2D4829468046FFF7ACFD2C60C5
:1006D00038682B4C40F00500386004F5823029461C
:1006E000FFF7A1FD78684FF47A7140F0020078605E
:1006F0002088FA2240F08000208007202085A185F4
:10070000A286228B42F068022283228C42F00102F0
:100710002284A28A42F00102A282228842F00102CF
:100720002280B26BB2FBF1F10139B1F1807F00D3CD
:10073000FEE7144AF0235160134908F520540B706A
:10074000002112A59160106020462021FFF722FFB2
:100750000128F9D12846FFF70BFFF5E760000020DC
:10076000181002400408014048656C6C6F20576FF8
:10077000726C64210000000040000118001001406C
:100780000004004010E000E023ED00E06B686F61C2
:10079000000000000204060800000000010203043B
:1007A0000102030406070809B8070008000000203A
:0807B000B0060000280100085A
:040000050800016D81
:00000001FF
