:020000040800F2
:100000002805002045010008B7100008450E00082B
:10001000B5100008B10100081D1400080000000020
:10002000000000000000000000000000BB100008FD
:10003000B301000800000000B9100008BD1000085E
:100040005F0100085F0100085F0100085F01000810
:100050005F0100085F0100085F0100085F01000800
:100060005F0100085F0100085F0100085F010008F0
:100070005F0100085F0100085F0100085F010008E0
:100080005F0100085F0100085F0100085F010008D0
:100090005F0100085F0100085F0100085F010008C0
:1000A0005F0100085F0100085F0100085F010008B0
:1000B0005F0100085F0100085F0100085F010008A0
:1000C0005F0100085F0100085F0100085F01000890
:1000D0005F0100085F0100085F0100085F01000880
:1000E000B50100085F0100085F0100085F0100081A
:1000F0005F0100085F0100085F0100085F01000860
:100100005F0100085F0100085F0100085F0100084F
:100110005F0100085F0100085F0100085F0100083F
:100120005F0100085F0100085F0100085F0100082F
:10013000DFF80CD000F02AF8004800475D140008F2
:10014000280500200648804706480047FEE7FEE7EE
:10015000FEE7FEE7FEE7FEE7FEE7FEE7FEE7FEE777
:100160000D11000831010008D2B201E000F8012BA6
:10017000491EFBD270470022F6E710B513460A4627
:1001800004461946FFF7F0FF204610BD064C074D08
:1001900006E0E06840F0010394E807009847103457
:1001A000AC42F6D3FFF7C8FF94140008B41400085B
:1001B000FEE7704710B54FF4806000F019F84FF477
:1001C000006000F015F84FF4805000F011F84FF483
:1001D000005000F00DF84FF4804000F009F8BDE841
:1001E00010404FF4004000F003B870477047000023
:1001F000044910B50A68024202D00860FFF7F6FF12
:1002000010BD0000140401402DE9F84FDFF8C8913B
:10021000002409F1040A0AF1040B23460F270BF10D
:10022000040ED1E00125A54006EA0502AA4276D1D6
:10023000DFF8A8C14E68A6EB0C0866452BD00DDC94
:10024000032E34D005DC36B3012E19D0022E2FD167
:100250001BE0112E16D0122E2AD119E0B8F5881FF6
:1002600019D006DCB8F5803F15D0B8F5801F1FD136
:1002700011E0B8F5001F0ED0B8F5041F18D10AE040
:10028000CB6815E0CB681B1D12E0CB6808330FE08C
:10029000CB680C330CE08B682BB1012B4FF00803BB
:1002A00003D0456104E0042302E0056100E000237F
:1002B000FF2A01D8064601E000F104064FEA840552
:1002C00001D9A5F12005D6F8008007FA05FC28EA37
:1002D0000C0803FA05F548EA0508C6F800804D68E1
:1002E000ED0070D53E4DAE6946F00106AE61AD69D8
:1002F00024F0030605F0010500953A4D06EB050CC8
:10030000DCF80850A607360F07FA06F825EA0805B4
:10031000DFF8D480404503D14FF0000825E052E0DB
:10032000DFF8C880404502D14FF001081DE0DFF83A
:10033000C080404502D14FF0020816E0DFF8B480DB
:10034000404502D14FF003080FE0DFF8AC80404594
:1003500002D14FF0040808E0DFF8A080404502D148
:100360004FF0050801E04FF0060808FA06F848EAE1
:100370000508CCF808804D68D9F80060ED034D46BB
:1003800001D5164300E096432E604D68DAF8006010
:10039000AD03554601D5164300E096432E604D68E7
:1003A000DBF80060ED025D4601D5164300E09643A0
:1003B0002E604D68DEF80060AD02754601D516432B
:1003C00000E096432E60641C0A681646E2407FF403
:1003D00029AFBDE8F88F00000004014000001110B3
:1003E000001002400000014000080140000C0140E4
:1003F000001001400014014000180140001C0140A1
:100400000AB1016170470904FBE7000001488068F8
:100410007047000000000020024881680278114403
:100420008160704700000020074810B5016841F066
:1004300010010160032000F075F8002000F006F8BC
:1004400000F024F8002010BD0020024070B50D4DD2
:1004500004464FF47A712878B1FBF0F00A49096834
:10046000B1FBF0F000F060FB48B9102C07D200227D
:100470002146501E00F036F800206C6070BD01204F
:1004800070BD0000000000200C0000200C4808B5E2
:10049000816941F001018161816901F001010091EF
:1004A000C16941F08051C161C06900F08050009085
:1004B0000448416821F0E06141F00071416008BDED
:1004C0000010024000000140002809DB00F01F027C
:1004D000012191404009800000F1E020C0F80011A6
:1004E00070470000F0B40E4B1B680C46C3F30223A8
:1004F000C3F10705042D00D90425191D072901D2D0
:10050000002300E0DB1E012606FA05F1491E21400A
:1005100099409E40761E16403143F0BC00F07FBFEC
:100520000CED00E0064900F0070208684FF6FF03F3
:10053000184040EA0220034A104308607047000058
:100540000CED00E00000FA052DE9F0470F4605002C
:1005500061D0434E306800F00700B84209D23068DD
:1005600020F0070038433060306800F00700B842E0
:1005700051D128683B4C810712D5400703D56068EC
:1005800040F4E06060602878000703D5606840F4BC
:10059000605060606068A96820F0F0000843606007
:1005A0002878C00728D06868012810D02168022860
:1005B00010D0890700292EDA616821F00301014378
:1005C0006160FFF723FF804641F288390DE0216822
:1005D0008903EFE78901EDE7FFF718FFA0EB0801BA
:1005E000494502D90320BDE8F0876068696800F0DA
:1005F0000C00B0EB810FEFD1306800F00700B8427B
:100600000BD9306820F0070038433060306800F0C4
:100610000700B84201D00120E5E72878400705D55A
:100620006068E96820F4E0600843606028780007AB
:1006300006D56068296920F4605040EAC100606016
:1006400000F038F86168084AC1F30311515CC840F2
:100650000649086006480068FFF7F8FE0020C2E778
:1006600000200240001002407A1400080C00002014
:10067000040000200448054900684968044AC1F3A1
:100680000221515CC84070470C000020001002405D
:100690008A1400080448054900684968044AC1F3FF
:1006A000C221515CC84070470C000020001002407D
:1006B0008A14000812A185B00FC98DE80F0014A09C
:1006C000144A006804905168134801F00C03042B8D
:1006D00010D0082B0ED1C1F38343C9031DF80300CA
:1006E0000AD5516804AAC1F34041515C0A4A5043FB
:1006F000B0FBF1F005B0704708494843FAE7000045
:1007000002030405060708090A0B0C0D0E0F101052
:10071000010200000010024000127A0000093D00B2
:100720002DE9F84F040070D02078C04DC00749D0A3
:100730006868C0F38100012807D06868C0F38100B1
:10074000022809D16868C00306D52868800339D516
:1007500060680028E7D035E06068B0F5803F0BD0D6
:1007600010B1B0F5A02F11D0286820F48030286097
:10077000286820F4802002E0286840F48030286057
:10078000606890B1FFF742FE06460AE0286840F430
:1007900080202860F0E700BFFFF738FE801B642848
:1007A00073D828688003F7D50CE0FFF72FFE0646C4
:1007B00005E000BFFFF72AFE801B6428F0D82868F8
:1007C0008003F7D420789A4E80074FF001094FF04C
:1007D000000839D5686810F00C0F07D06868C0F3BE
:1007E0008100022809D16868C00306D42868800700
:1007F00014D52069012808D110E02069B0B1C6F8ED
:100800000090FFF703FE074605E00AE1FFF7FEFD53
:10081000C01B0228C4D828688007F7D528686169FA
:1008200020F0F80040EAC10028600DE0C6F8008022
:10083000FFF7ECFD074604E0FFF7E8FDC01B0228C8
:1008400023D828688007F7D4207800072CD579486A
:10085000A169D9B1C0F80090FFF7D8FD074604E0C0
:10086000FFF7D4FDC01B02280FD8686A8007F7D5B0
:1008700071484FF4FA510068B0FBF1F0009000BFEE
:100880000098411E0091FAD20EE080E0C0F800808E
:10089000FFF7BCFD074604E0FFF7B8FDC01B0228C8
:1008A00075D8686A8007F7D42078400760D5E86972
:1008B0000027C00008D4E86940F08050E861E8698A
:1008C000012700F0805000905C480168C90513D4EE
:1008D0000168834641F480710160FFF797FD82460D
:1008E00006E000BFFFF792FDA0EB0A0064284ED897
:1008F000DBF80000C005F5D5E06801280AD008B192
:10090000052813D0286A20F001002862286A20F008
:10091000040002E0286A40F001002862E06841F229
:10092000883B98B1FFF772FD82460BE0286A40F0E1
:1009300004002862EEE700BFFFF768FDA0EB0A01A4
:1009400059455AD8286A8007F6D50CE0FFF75EFDB6
:10095000824605E0FFF75AFDA0EB0A0159454CD845
:10096000286A8007F6D41FB1E86920F08050E8615A
:10097000E06988B36968C1F38101022944D0022883
:10098000C6F8608004D0FFF741FD044638E034E04B
:10099000FFF73CFD074604E0FFF738FDC01B0228C7
:1009A0002BD828688001F7D4206AB0F5803F05D1A4
:1009B0006868A16820F4003008436860D4E9080141
:1009C0000843696821F4741108436860C6F86090B0
:1009D000FFF71CFD044606E025E000BFFFF716FD0B
:1009E000001B022809D828688001F7D51BE000BF4A
:1009F000FFF70CFD001B022802D90320BDE8F88F89
:100A000028688001F4D40EE00128F7D06868226AD3
:100A100000F48031914204D1616A00F47010884280
:100A200001D00120EAE70020E8E7000000100240C2
:100A300000004242800442420C000020007000404E
:100A400070B5040005D00025A56294F8510010B1DE
:100A500006E0012070BD84F85050204600F02EF8CA
:100A6000022084F851002068016821F040010160F3
:100A7000D4E901010843D4E9031211430843616931
:100A80000843218B01F400710843E1690843216A9E
:100A90000843A16A084321680860A069042101EAAB
:100AA0001040216848602068C16921F40061C1617B
:100AB0006565012084F85100002070BD10B586B036
:100AC000002100910191029103910068134988422D
:100AD00021D11348816941F480518161816901F418
:100AE00080510491816941F00401816180690D4C5C
:100AF00000F0040004905020009069462046FFF763
:100B000083FBA020009002200190032003906946FF
:100B10002046FFF779FB06B010BD00000030014011
:100B2000001002400008014010B5401EB0F1807F67
:100B300001D3012010BD4FF0E02460610F21601748
:100B400000F06DFC0020A06107202061002010BD96
:100B500070B590F83C20012A19D0012400F83C4FD0
:100B60000222427050F83C3C5A689D6822F07006A0
:100B70000A684968324325F0800529435A6050F8D5
:100B80003C2C9160447000210170084670BD022029
:100B900070BD000000B585B0002100910191029167
:100BA00003911B4B02681B4802219A421AD18269A9
:100BB00042F0100282618069039100F010000490FD
:100BC0004020CDE9000169461348FFF71DFB13489B
:100BD000416821F4406141F0E06141F440614160CD
:100BE00005B000BD0E4B9A42FAD1826942F0040270
:100BF0008261806900F0040004900120CDE90001C9
:100C00000320039069460748FFF7FEFAE8E7000073
:100C100000040040001002400010014000000140AC
:100C2000000C00400008014070B5044690F83C00FC
:100C30000D4601280DD0012684F83C60022084F87E
:100C40003D0042B1042A18D0082A2AD00C2A4DD1DE
:100C500039E0022070BD206800F0C2FA2068816986
:100C600041F0080181612068816921F004018161FE
:100C7000206881692A69114311E0206800F0E0FAD8
:100C80002068816941F4006181612068816921F4F3
:100C900080618161206881692A6941EA022181615C
:100CA00024E0206800F002FB2068C16941F00801DF
:100CB000C1612068C16921F00401C1612068C16976
:100CC0002A69114311E0206800F024FB2068C16903
:100CD00041F40061C1612068C16921F48061C16192
:100CE0002068C1692A6941EA0221C16184F83D6036
:100CF000002084F83C0070BD10B5040003D094F8C7
:100D00003D0010B107E0012010BD002084F83C0038
:100D1000204600F00DF8022084F83D00211D2068D7
:100D200000F018FA012084F83D00002010BD0000FA
:100D300008B50C4A01680C48914207D1C16941F0DD
:100D40000201C161C06900F0020009E0074A914256
:100D500007D1C16941F00801C161C06900F0080014
:100D6000009008BD0004004000100240000C00404C
:100D700070B5040004D094F83900002510B106E0E5
:100D8000012070BD84F83850204600F023F824205C
:100D900084F839002068C16821F40051C160204600
:100DA00000F0E0FA2068016921F4904101612068B7
:100DB000416921F02A0141612068C16841F4005174
:100DC000C160E563202084F8390084F83A000020EF
:100DD00070BD000030B585B00024009401940294E9
:100DE000039400681449884224D11448C16941F42D
:100DF0000021C161C16901F400210491816941F0C0
:100E00001001816180690E4D00F0100004904FF4D4
:100E100080600090022001900320039069462846DC
:100E2000FFF7F2F9E814CDE9000469462846029478
:100E3000FFF7EAF905B030BD004C00400010024059
:100E400000100140FEE700002DE9F04385B00024CA
:100E500038480094019402940394816941F0100190
:100E60008161816901F010010491816941F02001E3
:100E70008161816901F020010491816941F00401DF
:100E80008161816901F004010491816941F00801E7
:100E900081618069DFF8A08000F008004FF2BF3563
:100EA0000490002229464046FFF7AAFADFF88C900A
:100EB00049F20E07002239464846FFF7A1FA00958D
:100EC000022601250396CDE9015469464046FFF705
:100ED0009BF900970396CDE9015469464846FFF710
:100EE00093F940F60740164E0090CDE90165154D87
:100EF00069462846FFF788F94FF4405000901248A1
:100F0000CDE9010469462846FFF77EF94FF44040D9
:100F1000CDE90006694602942846FFF775F90022DC
:100F200011462820FFF7DEFA2820FFF7CDFA05B09A
:100F3000BDE8F083001002400010014000080140AD
:100F400000001110000C0140000021100E4810B5E7
:100F50000C4901604FF48271416000218160C160E1
:100F6000016141618161C1610162416281620A2165
:100F7000C162FFF765FD002803D0BDE81040FFF710
:100F800034B910BD003001401000002010B58AB007
:100F9000002407941C2168460894FFF7ECF81848D1
:100FA0001649016041F6FF01C0E9011440F2FF312A
:100FB000C0E9031480218161FFF79EFE08B1FFF7AD
:100FC00014F92020CDE9070407A90D48FFF7C0FD5B
:100FD00008B1FFF70AF96020CDE90004029400226D
:100FE000694607480494FFF71FFE08B1FFF7FDF8B4
:100FF0000348FFF7CFFD0AB010BD00000004004019
:101000006800002010B58AB0002407941C216846AF
:101010000894FFF7B0F818481649016041F6FF013F
:10102000C0E9011440F2FF31C0E90314802181615D
:10103000FFF762FE08B1FFF7D8F82020CDE90704DA
:1010400007A90D48FFF784FD08B1FFF7CEF860202F
:10105000CDE9000402940022694607480494FFF792
:10106000E3FD08B1FFF7C1F80348FFF793FD0AB0AD
:1010700010BD0000000C0040A80000200C4810B576
:101080000A4901604FF4E1314160002181600C2286
:10109000C160C0E904128161C161FFF769FE0028E7
:1010A00003D0BDE81040FFF7A0B810BD004C0040D1
:1010B000E8000020FEE7704770477047FFF7ACB9C3
:1010C00030B58FB028216846FFF755F814210AA8DB
:1010D000FFF751F801210804CDE900100024029423
:1010E00002250491CDE90750C00009906846FFF73A
:1010F00017FB0F20CDE90A058020CDE90C04012162
:101100000AA80E94FFF720FA0FB030BD0D48016811
:1011100041F00101016041680B4A114041600168E2
:101120000A4A11400160016821F480210160416890
:1011300021F4FE0141604FF41F0181600449C003A6
:1011400008607047001002400000FFF8FFFFF6FE45
:1011500008ED00E0F0B502681C4B1D4D1D4E1E4F02
:101160001E4C4FF0804C984209D0A04207D06045F9
:1011700005D0A84203D0B04201D0B84204D122F039
:10118000700E4A6842EA0E02984209D0A04207D087
:10119000604505D0A84203D0B04201D0B84203D187
:1011A00022F44075CA682A434D6922F080022A431E
:1011B00002608A68C2620A688262984201D0A042D4
:1011C00001D10969016301214161F0BD002C014099
:1011D0000004004000080040000C004000340140C2
:1011E000F0B5026A22F001020262036A4268846971
:1011F000124E24F073050C682C4323F002058B6813
:101200002B430D4DA84201D0B04205D123F0080771
:10121000CB683B4323F00403A84201D0B04205D180
:101220004D6922F4407215438A692A434260846101
:10123000496841630362F0BD002C01400034014065
:10124000F0B5026A22F010020262026A4368846901
:101250000D6824F4E64444EA05248D6822F0200257
:1012600042EA05120F4D104EA84201D0B04206D1FD
:10127000CF6822F0800242EA071222F04002A84220
:1012800001D0B04207D14D6923F4406343EA85039E
:101290008D6943EA85034360846149688163026222
:1012A000F0BD0000002C014000340140F0B5026A9E
:1012B00022F480720262026A4368C46922F40072F6
:1012C00024F073050C68124E2C438D6842EA052207
:1012D0000E4DA84201D0B04206D1CF6822F4006280
:1012E00042EA072222F48062A84201D0B04207D12C
:1012F0004D6923F4405343EA05138D6943EA05130E
:101300004360C4614968C1630262F0BD002C0140C2
:101310000034014030B5026A22F480520262046A4D
:101320004268C3690D6823F4E64343EA05238D68E8
:1013300024F4005444EA0534084DA84202D0084D74
:10134000A84204D14D6922F4804242EA85124260EB
:10135000C36149680164046230BD0000002C014093
:10136000003401402DE9F041044600680169E2685B
:1013700021F44051114301612169A068084361696A
:1013800008432168CA6841F20C639A430243CA6069
:1013900020684169A26921F44071114341611E49ED
:1013A000206864253226884202D1FFF773F901E0F4
:1013B000FFF760F900EBC00101EB001160686FF00E
:1013C00018078000B1FBF0F2B2FBF5F2B1FBF0F3CD
:1013D0007A4303EB8202B1FBF0F306EB0212B2FB9D
:1013E000F5F2B3FBF5F302F0F00202EB0312B1FBEE
:1013F000F0F3B1FBF0F0B0FBF5F0784303EB8000C5
:1014000006EB0010B0FBF5F0216800F00F0010446F
:101410008860BDE8F081000000380140FEE7090760
:10142000090E002804DB00F1E02080F8001470476A
:1014300000F00F0000F1E02080F8141D704702E07A
:1014400008C8121F08C1002AFAD17047704700204F
:1014500001E001C1121F002AFBD17047FEF7E4FF33
:10146000FFF72EFEFFF7F0FCFFF770FDFFF7CAFD58
:10147000FFF704FEFFF78AFDFEE700000000000012
:101480000000010203040607080900000000010231
:1014900003040000B4140008000000201000000045
:1014A0003E140008C41400081000002018050000B5
:1014B0004E140008010000001000000000000000B1
:0414C0000024F40010
:0400000508000131BD
:00000001FF
