:020000040800F2
:10000000C805002045010008331B0008111800082E
:10001000311B0008C1010008EB20000800000000AF
:10002000000000000000000000000000371B000876
:10003000C301000800000000351B0008391B000840
:100040005F0100085F0100085F0100085F01000810
:100050005F0100085F0100085F0100085F01000800
:100060005F0100085F0100085F0100085F010008F0
:100070005F0100085F0100085F0100085F010008E0
:100080005F0100085F0100085F0100085F010008D0
:100090005F0100085F0100085F0100085F010008C0
:1000A0005F0100085F0100085F0100085F010008B0
:1000B000D11B00085F0100085F0100085F01000814
:1000C0005F0100085F0100085F0100085F01000890
:1000D0005F0100085F0100085F0100085F01000880
:1000E000C50100085F0100085F0100085F0100080A
:1000F0005F0100085F0100085F0100085F01000860
:100100005F0100085F0100085F0100085F0100084F
:10011000811E00085F010008DD1B00085F01000868
:100120005F0100085F0100085F0100085F0100082F
:10013000DFF80CD000F032F8004800473D220008FC
:10014000C80500200648804706480047FEE7FEE74E
:10015000FEE7FEE7FEE7FEE7FEE7FEE7FEE7FEE777
:10016000891B000831010008D2B201E000F8012B20
:10017000491EFBD270470022F6E710B513460A4627
:1001800004461946FFF7F0FF204610BD421C10F848
:10019000011B0029FBD1801A70470000064C074D57
:1001A00006E0E06840F0010394E807009847103447
:1001B000AC42F6D3FFF7C0FF5023000870230008BD
:1001C000FEE770472DE9F0412C4E30682C4D2D4C48
:1001D00080040BD52CA001F0BBFE286828B1206854
:1001E0002B4908600020206000E000BF30684FF01D
:1001F0000407400416D5286898B12648007820B135
:1002000025A02F6001F0A4FE0CE028A001F0A0FEC4
:1002100020680028206800DA404220600220286020
:1002200000E000BF3068000416D5286898B1224865
:10023000007820B118A02F6001F08AFE0CE01FA00A
:1002400001F086FE20680028206800DD4042206022
:100250000320286000E000BF4FF4805000F0E2F877
:100260004FF4005000F0DEF84FF4804000F0DAF870
:10027000BDE8F0414FF4004000F0D4B81404014050
:1002800010000020080000200A53746F7000000066
:100290001C00002004000020496E76616C69642017
:1002A000506F736974696F6E0A0000000A466F72BE
:1002B0007761726400000000050000200A4261635B
:1002C0006B77617264000000704700002DE9F05FF9
:1002D00090F821100024022903D004218163012415
:1002E00085E001680A6822F00E020A6001680A6867
:1002F00022F001020A603F4E3E4FB215DFF8F4C013
:10030000DFF8F090DFF8ECA0DFF8E8B0DFF8E4E029
:100310000168783F13011502ACF1640CA9F1500992
:10032000AAF13C0AABF1280BAEF1140E4FF4801881
:10033000B14227D9B9420ED0614512D049451DD0EE
:10034000514518D0594518D0714501D1424615E0A4
:10035000294EB14201D1012210E0274E1436B1429C
:1003600001D110220AE0244E2836B14206D0224A9A
:100370003C32914201D11A4600E02A461E49091F2B
:100380000A602BE0B94213D0614517D0494522D00D
:1003900051451DD059451DD0714501D142461AE045
:1003A000B14202D14FF0807215E0134EB14201D13B
:1003B000012210E0104E1436B14201D110220AE0A1
:1003C0000D4E2836B14206D00B4A3C32914201D143
:1003D0001A4600E02A46074980394A60012180F820
:1003E0002110002180F82010416B01B18847204680
:1003F000BDE8F09F800002400804024070B504464A
:1004000000F022F90546601C02D00448007804443C
:1004100000F01AF9401BA042FAD370BD2000002062
:1004200070470000044910B50A68024202D0086013
:10043000FFF7F6FF10BD0000140401402DE9F84F4E
:10044000DFF8C891002409F1040A0AF1040B2346DD
:100450000F270BF1040ED1E00125A54006EA0502A5
:10046000AA4276D1DFF8A8C14E68A6EB0C08664513
:100470002BD00DDC032E34D005DC36B3012E19D081
:10048000022E2FD11BE0112E16D0122E2AD119E0E8
:10049000B8F5881F19D006DCB8F5803F15D0B8F53F
:1004A000801F1FD111E0B8F5001F0ED0B8F5041F52
:1004B00018D10AE0CB6815E0CB681B1D12E0CB68B1
:1004C00008330FE0CB680C330CE08B682BB1012BA9
:1004D0004FF0080303D0456104E0042302E0056106
:1004E00000E00023FF2A01D8064601E000F10406DF
:1004F0004FEA840501D9A5F12005D6F8008007FA56
:1005000005FC28EA0C0803FA05F548EA0508C6F8D0
:1005100000804D68ED0070D53E4DAE6946F0010695
:10052000AE61AD6924F0030605F0010500953A4D72
:1005300006EB050CDCF80850A607360F07FA06F89C
:1005400025EA0805DFF8D480404503D14FF00008C4
:1005500025E052E0DFF8C880404502D14FF00108A5
:100560001DE0DFF8C080404502D14FF0020816E0E0
:10057000DFF8B480404502D14FF003080FE0DFF808
:10058000AC80404502D14FF0040808E0DFF8A080BD
:10059000404502D14FF0050801E04FF0060808FA87
:1005A00006F848EA0508CCF808804D68D9F80060DC
:1005B000ED034D4601D5164300E096432E604D688D
:1005C000DAF80060AD03554601D5164300E09643C6
:1005D0002E604D68DBF80060ED025D4601D51643E4
:1005E00000E096432E604D68DEF80060AD0275466F
:1005F00001D5164300E096432E60641C0A68164637
:10060000E2407FF429AFBDE8F88F0000000401400C
:1006100000001110001002400000014000080140DD
:10062000000C01400010014000140140001801407E
:10063000001C01408068084000D0012070470AB1CA
:10064000016170470904FBE70148806870470000BA
:1006500020000020024881680278114481607047C0
:1006600020000020074810B5016841F0100101602A
:10067000032000F075F8002000F006F800F024F8E0
:10068000002010BD0020024070B50D4D04464FF40F
:100690007A712878B1FBF0F00A490968B1FBF0F0F3
:1006A00000F060FB48B9102C07D200222146501EF2
:1006B00000F036F800206C6070BD012070BD0000B5
:1006C000200000202C0000200C4808B5816941F072
:1006D00001018161816901F001010091C16941F06D
:1006E0008051C161C06900F08050009004484168A9
:1006F00021F0E06141F00071416008BD001002404E
:1007000000000140002809DB00F01F020121914098
:100710004009800000F1E020C0F80011704700009F
:10072000F0B40E4B1B680C46C3F30223C3F107055C
:10073000042D00D90425191D072901D2002300E04A
:10074000DB1E012606FA05F1491E214099409E4014
:10075000761E16403143F0BC01F0C8BC0CED00E041
:10076000064900F0070208684FF6FF03184040EA08
:100770000220034A10430860704700000CED00E0BF
:100780000000FA052DE9F0470F46050061D0434E01
:10079000306800F00700B84209D2306820F0070046
:1007A00038433060306800F00700B84251D1286803
:1007B0003B4C810712D5400703D5606840F4E060E8
:1007C00060602878000703D5606840F4605060607E
:1007D0006068A96820F0F000084360602878C007CE
:1007E00028D06868012810D02168022810D0890715
:1007F00000292EDA616821F0030101436160FFF7EF
:1008000023FF804641F288390DE021688903EFE734
:100810008901EDE7FFF718FFA0EB0801494502D970
:100820000320BDE8F0876068696800F00C00B0EB59
:10083000810FEFD1306800F00700B8420BD9306863
:1008400020F0070038433060306800F00700B842FD
:1008500001D00120E5E72878400705D56068E96800
:1008600020F4E060084360602878000706D56068DF
:10087000296920F4605040EAC100606000F038F857
:100880006168084AC1F30311515CC8400649086019
:1008900006480068FFF7F8FE0020C2E7002002408B
:1008A00000100240382300082C0000202400002003
:1008B0000448054900684968044AC1F30221515CB3
:1008C000C84070472C000020001002404823000858
:1008D0000448054900684968044AC1F3C221515CD3
:1008E000C84070472C000020001002404823000838
:1008F00012A185B00FC98DE80F0014A0144A00683A
:1009000004905168134801F00C03042B10D0082BFD
:100910000ED1C1F38343C9031DF803000AD5516802
:1009200004AAC1F34041515C0A4A5043B0FBF1F0C4
:1009300005B0704708494843FAE700000203040580
:10094000060708090A0B0C0D0E0F1010010200001B
:100950000010024000127A0000093D002DE9F84F16
:10096000040070D02078C04DC00749D06868C0F33B
:100970008100012807D06868C0F38100022809D1EE
:100980006868C00306D52868800339D560680028E8
:10099000E7D035E06068B0F5803F0BD010B1B0F51E
:1009A000A02F11D0286820F480302860286820F417
:1009B000802002E0286840F480302860606890B1B0
:1009C000FFF742FE06460AE0286840F480202860CF
:1009D000F0E700BFFFF738FE801B642873D8286853
:1009E0008003F7D50CE0FFF72FFE064605E000BFB9
:1009F000FFF72AFE801B6428F0D828688003F7D40C
:100A000020789A4E80074FF001094FF0000839D541
:100A1000686810F00C0F07D06868C0F381000228E6
:100A200009D16868C00306D42868800714D52069F6
:100A3000012808D110E02069B0B1C6F80090FFF796
:100A400003FE074605E00AE1FFF7FEFDC01B022892
:100A5000C4D828688007F7D52868616920F0F800B5
:100A600040EAC10028600DE0C6F80080FFF7ECFD09
:100A7000074604E0FFF7E8FDC01B022823D82868DA
:100A80008007F7D4207800072CD57948A169D9B11F
:100A9000C0F80090FFF7D8FD074604E0FFF7D4FD4B
:100AA000C01B02280FD8686A8007F7D571484FF439
:100AB000FA510068B0FBF1F0009000BF0098411EB1
:100AC0000091FAD20EE080E0C0F80080FFF7BCFD94
:100AD000074604E0FFF7B8FDC01B022875D8686A16
:100AE0008007F7D42078400760D5E8690027C00068
:100AF00008D4E86940F08050E861E869012700F017
:100B0000805000905C480168C90513D40168834691
:100B100041F480710160FFF797FD824606E000BF57
:100B2000FFF792FDA0EB0A0064284ED8DBF8000026
:100B3000C005F5D5E06801280AD008B1052813D012
:100B4000286A20F001002862286A20F0040002E0F0
:100B5000286A40F001002862E06841F2883B98B1C1
:100B6000FFF772FD82460BE0286A40F0040028621D
:100B7000EEE700BFFFF768FDA0EB0A0159455AD820
:100B8000286A8007F6D50CE0FFF75EFD824605E097
:100B9000FFF75AFDA0EB0A0159454CD8286A800797
:100BA000F6D41FB1E86920F08050E861E06988B3AD
:100BB0006968C1F38101022944D00228C6F8608027
:100BC00004D0FFF741FD044638E034E0FFF73CFD78
:100BD000074604E0FFF738FDC01B02282BD8286821
:100BE0008001F7D4206AB0F5803F05D16868A1681C
:100BF00020F4003008436860D4E9080108436968BC
:100C000021F4741108436860C6F86090FFF71CFD7A
:100C1000044606E025E000BFFFF716FD001B022892
:100C200009D828688001F7D51BE000BFFFF70CFD4D
:100C3000001B022802D90320BDE8F88F2868800134
:100C4000F4D40EE00128F7D06868226A00F48031FD
:100C5000914204D1616A00F47010884201D00120F1
:100C6000EAE70020E8E700000010024000004242EE
:100C7000800442422C0000200070004070B5040047
:100C800005D00025A56294F8510010B106E00120BE
:100C900070BD84F85050204600F02EF8022084F8F1
:100CA00051002068016821F040010160D4E9010190
:100CB0000843D4E903121143084361690843218BB7
:100CC00001F400710843E1690843216A0843A16AFD
:100CD000084321680860A069042101EA10402168E6
:100CE00048602068C16921F40061C1616565012027
:100CF00084F85100002070BD10B586B0002100912D
:100D000001910291039100681349884221D113484F
:100D1000816941F480518161816901F480510491BC
:100D2000816941F00401816180690D4C00F004008B
:100D300004905020009069462046FFF77FFBA020DA
:100D40000090022001900320039069462046FFF79F
:100D500075FB06B010BD00000030014000100240DD
:100D60000008014010B5401EB0F1807F01D3012082
:100D700010BD4FF0E02460610F21601701F0B6F95B
:100D80000020A06107202061002010BD704770473F
:100D900070B590F83C20012A19D0012400F83C4F8E
:100DA0000222427050F83C3C5A689D6822F070065E
:100DB0000A684968324325F0800529435A6050F893
:100DC0003C2C9160447000210170084670BD0220E7
:100DD00070BD10B5040003D094F83D0010B107E0D9
:100DE000012010BD002084F83C00204600F00CF8E3
:100DF000022084F83D00211D206800F0F5FE01204E
:100E000084F83D00002010BD08B501681448B1F118
:100E1000804F14D0134A914220D1C16941F0100192
:100E2000C161C069002200F010000090012136204D
:100E3000FFF776FC3620BDE80840FFF763BCC169C8
:100E400041F00101C161C069002200F00100009081
:100E500002211C20FFF764FC1C20ECE708BD000009
:100E600000100240001000400168CA6842F0010210
:100E7000CA600068816801F00701062903D0016893
:100E800041F0010101600020704770B5044690F800
:100E90003C00012817D0012584F83C50022084F83A
:100EA0003D002068826822F0770222F47F4282604F
:100EB0000868502830D00DDC20284DD005DC98B3D0
:100EC00010283BD148E0022070BD302844D0402893
:100ED00034D139E0602828D0702806D0B0F5805F82
:100EE0002CD0B0F5005F29D10AE0CB68D1E901210F
:100EF000206800F0CCFE2068816841F0770109E0AD
:100F0000CB68D1E90121206800F0C1FE206881682A
:100F100041F48041816011E0CA684968206800F0AE
:100F20008BFF5021206807E016E0CA6849682068F6
:100F300000F093FF6021206800F0B3FE84F83D507C
:100F4000002084F83C0070BDCA684968206800F041
:100F500073FF40212068EFE7226801461046EBE767
:100F6000704770B50446006801694FF00005C94339
:100F7000890715D4C168C943890711D4E91E0161E5
:100F800001202077206880698007204602D0FFF783
:100F9000E7FF04E000F0E2F8204600F083F925774F
:100FA00020680169C943490717D4C168C943490783
:100FB00013D46FF00401016102202077206880695A
:100FC00010F4407F204602D0FFF7CAFF04E000F093
:100FD000C5F8204600F066F9257720680169C94305
:100FE000090716D4C168C943090712D46FF0080174
:100FF0000161042020772068C0698007204602D064
:10100000FFF7AEFF04E000F0A9F8204600F04AF92F
:10101000257720680169C943C90617D4C168C94347
:10102000C90613D46FF010010161082020772068F1
:10103000C06910F4407F204602D0FFF791FF04E022
:1010400000F08CF8204600F02DF925772068016922
:10105000C943C90708D1C168C943C90704D1891E5A
:101060000161204600F042F920680169C943090680
:1010700009D4C168C943090605D46FF08001016134
:101080002046FFF783FE20680169C943490609D459
:10109000C168C943490605D46FF04001016120468B
:1010A00000F062F920680169C94389060BD4C16860
:1010B000C943890607D46FF0200101612046BDE8CD
:1010C0007040FFF764BE70BD00B585B0002100918F
:1010D0000191029103911B4B02681B4802219A4225
:1010E0001AD1826942F0100282618069039100F096
:1010F000100004904020CDE9000169461348FFF735
:101100009DF91348416821F4406141F0E06141F4E8
:101110004061416005B000BD0E4B9A42FAD1826930
:1011200042F004028261806900F004000490012012
:10113000CDE900010320039069460748FFF77EF9D7
:10114000E8E70000000400400010024000100140E9
:1011500000000140000C004000080140704770B5DD
:10116000044690F83C000D4601280DD0012684F875
:101170003C60022084F83D0042B1042A18D0082ABD
:101180002AD00C2A4DD139E0022070BD206800F031
:1011900091FD2068816941F00801816120688169C1
:1011A00021F004018161206881692A69114311E0FD
:1011B000206800F0AFFD2068816941F40061816121
:1011C0002068816921F480618161206881692A69D0
:1011D00041EA0221816124E0206800F0D1FD20680D
:1011E000C16941F00801C1612068C16921F00401B1
:1011F000C1612068C1692A69114311E0206800F0CB
:10120000F3FD2068C16941F40061C1612068C169D2
:1012100021F48061C1612068C1692A6941EA022123
:10122000C16184F83D60002084F83C0070BD10B5B9
:10123000040003D094F83D0010B107E0012010BD78
:10124000002084F83C00204600F00CF8022084F8CE
:101250003D00211D206800F0C7FC012084F83D00FE
:10126000002010BD08B50C4A01680C48914207D116
:10127000C16941F00201C161C06900F0020009E0EA
:10128000074A914207D1C16941F00801C161C069B3
:1012900000F00800009008BD00040040001002406B
:1012A000000C00407047000010B5044600680122A1
:1012B00000F0E0FC0B492068884202D00A498842CD
:1012C00003D1416C41F4004141642068816801F020
:1012D0000701062903D0016841F0010101600020E7
:1012E00010BD0000002C01400034014070B51A4AC6
:1012F00001681A4C126891420ED1E168A2689142CD
:10130000E16801DA491C06E0A268914201D1A168B6
:1013100001E0E168491EE1601149006809688842FE
:1013200018D1104D02212846FFF784F90646012105
:101330002846FFF77FF946EA40002071042128463D
:10134000FFF778F90646E9142846FFF773F946EAED
:101350004000607170BD0000880000200000002087
:1013600048010020000C01407047704770B50268CA
:1013700004461068D168536910F00F0F50D003F085
:10138000010501F4907635435DD0C20705D0CA054A
:1013900003D5E26B42F00102E263420705D5DA07AA
:1013A00003D0E26B42F00202E263820705D5DA075E
:1013B00003D0E26B42F00402E263020705D5DA07CC
:1013C00003D0E26B42F00802E263E26B002A33D002
:1013D000800604D5880602D5204600F06DFD206801
:1013E0004069E16BC0F38010090700D428B32046A0
:1013F00000F054FD2068416949061AD5416921F081
:1014000040014161606BA0B11B494163606BFEF715
:101410005DFF002810D0606B416BBDE8704008474D
:10142000830610D58B060ED52046BDE8704000F02F
:1014300043BD2046FFF799FF70BD2046FFF795FF9B
:101440000020E06370BD030606D50B0604D52046D8
:10145000BDE8704000F0E6BD4006F3D54806F1D582
:10146000D168204621F04001D160202184F8391054
:1014700000F0CDF970BD00008D1E000870B50400AD
:1014800004D094F83900002510B106E0012070BDA9
:1014900084F83850204600F023F8242084F83900DE
:1014A0002068C16821F40051C160204600F05EFD53
:1014B0002068016921F4904101612068416921F0AF
:1014C0002A0141612068C16841F40051C160E563AF
:1014D000202084F8390084F83A00002070BD000014
:1014E00030B585B000240094019402940394006800
:1014F000184988422CD11848C16941F40021C161C2
:10150000C16901F400210491816941F010018161F8
:101510008069124D00F0100004904FF4806000903C
:10152000022001900320039069462846FEF786FFBB
:10153000E814CDE90004694628460294FEF77EFFD0
:10154000002211463420FFF7EBF83420FFF7DAF8D9
:1015500005B030BD004C00400010024000100140BA
:1015600090F83A30202B22D1F9B1F2B190F838300E
:10157000012B1CD081628285C2850021C163222299
:1015800080F83A2080F838100168CA6842F4807206
:10159000CA6001684A6942F001024A610068C16894
:1015A00041F02001C16000207047012070470220F7
:1015B000704700002DE9F0415D4A00680021126883
:1015C00090427BD15B4D002605F11404E87848B1C8
:1015D00000BF5849891D0978582909D02154401C59
:1015E000E8700BE06654491CC9B20829FAD3F0E749
:1015F000082807D050A000F0ABFCEE702869012845
:1016000003D005E001202870F7E72878012808D0EA
:1016100000BF0122BDE8F04146494548891DFFF75A
:101620009FBF2378532B26D000206278502A24D0E5
:1016300000210840A178452921D0002108402179C6
:1016400044291ED00021084220D06079E179303849
:1016500000EBC00202EB001001EB8000A1793B4AD5
:1016600001EB810102EB41010844A860A86832281F
:1016700009DD322008E00120D7E70121D9E7012167
:10168000DCE70121DFE7A868A8604CE0432B1BD012
:1016900000214C2A1AD0002067790140572F17D01B
:1016A000002094F806C00140BCF1450F12D0002084
:1016B000E4790140542C0FD0002000E035E00142D5
:1016C00023480BD001221FE00121E2E70120E3E7DC
:1016D0000120E6E70120EBE70120EEE7432B17D0DE
:1016E00000214C2A16D000221140442F14D0002291
:1016F0001140BCF1520F11D000221140592C0FD0D3
:10170000002211420ED000221021FEF798FF0AE0BD
:101710000121E6E70122E7E70122E9E70122ECE700
:101720000122EEE700BF2E7073E7BDE8F0810000F4
:1017300088010020000000206C61636B206F662030
:101740006C656E676874680A00000000F0FDFFFFBA
:10175000001001402DE9F843044690F839001F4677
:1017600016460D46202850D1A5B19EB194F83800F8
:1017700001284AD0012084F838004FF00008C4F84E
:101780003C80212084F83900FEF75EFFA684814664
:10179000E68426E00120BDE8F883E08C401EE0846A
:1017A000A0684B46B0F5805F4FF000024FF080011B
:1017B0002046009703D000F066FCE8B90DE000F089
:1017C00062FCC8B928882168C0F308004860206915
:1017D00008B16D1C05E0AD1C03E0216815F8010B94
:1017E0004860E08C0028D8D14B460022402120469A
:1017F000009700F048FC08B10320CCE7202084F8D3
:10180000390084F838800020C5E70220C3E770471C
:10181000FEE700002DE9F04385B00024384800942D
:10182000019402940394816941F0100181618169FE
:1018300001F010010491816941F020018161816909
:1018400001F020010491816941F004018161816905
:1018500001F004010491816941F00801816180690E
:10186000DFF8A08000F008004FF2BF35049000229E
:1018700029464046FEF7E3FEDFF88C9049F20E075A
:10188000002239464846FEF7DAFE00950226012579
:101890000396CDE9015469464046FEF7CFFD009717
:1018A0000396CDE9015469464846FEF7C7FD40F668
:1018B0000740CDE90004154D694628460294FEF71D
:1018C000BDFD4FF4405000901148CDE90104694638
:1018D0002846FEF7B3FD4FF4404000900D48CDE997
:1018E000010469462846FEF7A9FD0022114628207A
:1018F000FEF716FF2820FEF705FF05B0BDE8F083D0
:10190000001002400010014000080140000C01409E
:1019100000002110000011100E4810B50C490160A4
:101920004FF48271416000218160C16001614161B9
:101930008161C1610162416281620A21C162FFF776
:101940009DF9002803D0BDE81040FEF7BDBC10BDD6
:10195000003001403000002010B586B00024174848
:10196000009401940294039404944FF080410594F0
:10197000016040F23F61C0E9011440F2CF71C0E95B
:10198000031480218161FFF724FA08B1FEF79CFC63
:101990004FF48050009069460848FFF776FA08B186
:1019A000FEF792FC049404A904480594FFF7F0F9AB
:1019B000002801D0FEF788FC06B010BD880000208A
:1019C00010B58AB0002407941C2168460894FEF7DD
:1019D000D2FB18481649016040F24911C0E90114D0
:1019E00040F2E731C0E9031480218161FFF71FFC59
:1019F00008B1FEF769FC2020CDE9070407A90D48CE
:101A0000FFF7C6F908B1FEF75FFC6020CDE90004DE
:101A100002940022694607480494FFF7A0FB08B12E
:101A2000FEF752FC0348FFF74FFB0AB010BD000061
:101A300000040040C800002010B58AB000240794BC
:101A40001C2168460894FEF796FB18481649016069
:101A500040F24911C0E9011440F2E731C0E9031432
:101A600080218161FFF7E3FB08B1FEF72DFC202008
:101A7000CDE9070407A90D48FFF78AF908B1FEF779
:101A800023FC6020CDE90004029400226946074847
:101A90000494FFF764FB08B1FEF716FC0348FFF758
:101AA00013FB0AB010BD0000000C0040080100202C
:101AB0001CB500240F4800940D490194016040F2C8
:101AC0003F61C0E9011440F2E7318461C160FFF772
:101AD00080F908B1FEF7F8FB0094694605480194C7
:101AE000FFF756F9002801D0FEF7EEFB1CBD000001
:101AF00000100040480100200C4810B50A49016060
:101B00004FF4E1314160002181600C22C160C0E9E5
:101B100004128161C161FFF7B1FC002803D0BDE868
:101B20001040FEF7D1BB10BD004C004088010020E2
:101B3000FEE7704770477047FEF78CBD30B58FB039
:101B400028216846FEF717FB14210AA8FEF713FBAD
:101B500002240120049000941020059000254FF4E9
:101B6000C010CDE9085007946846FEF7F7FE0F2035
:101B7000CDE90A048020CDE90C0501210AA80E95C3
:101B8000FEF700FE0FB030BD0D48016841F00101C5
:101B9000016041680B4A1140416001680A4A1140E6
:101BA0000160016821F480210160416821F4FE0197
:101BB00041604FF41F0181600449C0030860704711
:101BC000001002400000FFF8FFFFF6FE08ED00E005
:101BD0000148FFF7C6B90000880000200148FFF760
:101BE000C0B9000048010020F0B502681C4B1D4D33
:101BF0001D4E1E4F1E4C4FF0804C984209D0A04203
:101C000007D0604505D0A84203D0B04201D0B84209
:101C100004D122F0700E4A6842EA0E02984209D0BE
:101C2000A04207D0604505D0A84203D0B04201D001
:101C3000B84203D122F44075CA682A434D6922F0A4
:101C400080022A4302608A68C2620A6882629842FD
:101C500001D0A04201D10969016301214161F0BDB8
:101C6000002C01400004004000080040000C00402F
:101C70000034014010B501F01F030121046A9940AE
:101C80008C430462016A9A401143016210BD10B591
:101C9000846842EA032224F47F440A432243826098
:101CA00010BD826822F070020A4342F00701816091
:101CB00070470000F0B5026A22F001020262036A76
:101CC00042688469124E24F073050C682C4323F09B
:101CD00002058B682B430D4DA84201D0B04205D1BF
:101CE00023F00807CB683B4323F00403A84201D04C
:101CF000B04205D14D6922F4407215438A692A43E6
:101D000042608461496841630362F0BD002C014078
:101D100000340140F0B5026A22F010020262026A49
:101D2000436884690D6824F4E64444EA05248D6818
:101D300022F0200242EA05120F4D104EA84201D0B7
:101D4000B04206D1CF6822F0800242EA071222F0A8
:101D50004002A84201D0B04207D14D6923F440634C
:101D600043EA85038D6943EA8503436084614968DA
:101D700081630262F0BD0000002C0140003401408C
:101D8000F0B5026A22F480720262026A4368C46992
:101D900022F4007224F073050C68124E2C438D68F7
:101DA00042EA05220E4DA84201D0B04206D1CF68CA
:101DB00022F4006242EA072222F48062A84201D0A3
:101DC000B04207D14D6923F4405343EA05138D69AE
:101DD00043EA05134360C4614968C1630262F0BD10
:101DE000002C01400034014030B5026A22F48052D8
:101DF0000262046A4268C3690D6823F4E64343EA59
:101E000005238D6824F4005444EA0534084DA842A3
:101E100002D0084DA84204D14D6922F4804242EA22
:101E200085124260C36149680164046230BD0000EC
:101E3000002C01400034014010B5036A046A24F00C
:101E400001040462846924F0F00444EA021423F0DB
:101E50000A020A438461026210BD10B5036A23F0CE
:101E6000100303628369046A23F4704343EA023275
:101E700024F0A00343EA01118261016210BD000059
:101E80000148FFF773BA00008801002010B5406ACE
:101E90000021C185C184FFF768FA10BD0168CA68D6
:101EA00022F49072CA6001684A6922F001024A6114
:101EB000202180F83A10704710B590F83A10222986
:101EC00001D0022010BD8168B1F5805F11D0016999
:101ED000002901681FD0496801F07F03816A4A1C0C
:101EE00082620B70C18D491E0904090CC18518D08E
:101EF0002BE00269816A002A0268526805D0D2B2DA
:101F00000A80816A491C8162ECE7C2F308020A80F8
:101F1000816A891CF7E74A68816A4B1C83620A70F0
:101F2000E0E70168CA6822F02002CA600168CA6856
:101F300022F48072CA6001684A6922F001024A6193
:101F4000202180F83A10FFF735FB002010BD00007B
:101F500010B50446FEF71AF9214682B2BDE81040DA
:101F60000A230148FFF7F6BB880100202DE9F04164
:101F7000044600680169E26821F44051114301619F
:101F80002169A0680843616908432168CA6841F271
:101F90000C639A430243CA6020684169A26921F434
:101FA0004071114341611E492068642532268842F0
:101FB00002D1FEF78DFC01E0FEF77AFC00EBC001D8
:101FC00001EB001160686FF018078000B1FBF0F2C0
:101FD000B2FBF5F2B1FBF0F37A4303EB8202B1FB03
:101FE000F0F306EB0212B2FBF5F2B3FBF5F302F0ED
:101FF000F00202EB0312B1FBF0F3B1FBF0F0B0FB27
:10200000F5F0784303EB800006EB0010B0FBF5F031
:10201000216800F00F0010448860BDE8F0810000E6
:102020000038014090F83910212901D00220704772
:102030008168B1F5805F016A0BD04A1C02620268B8
:1020400009785160C18C491E0904090CC1840ED065
:1020500017E009880268C1F308015160016900298D
:10206000016A02D0491C0162ECE7891CFBE70168A8
:10207000CA6822F08002CA600068C16841F040016D
:10208000C160002070472DE9F041984617460E4682
:102090000446069D1DE0681C1BD02DB1FEF7D4FA46
:1020A000A0EB0800A84214D92068C16821F4D071BF
:1020B000C1602068416921F001014161202084F85C
:1020C000390084F83A00002084F838000320BDE885
:1020D000F0812068006836EA000004D00020B84291
:1020E000D9D00020F3E70120F9E7FEE70907090E40
:1020F000002804DB00F1E02080F80014704700F0B5
:102100000F0000F1E02080F8141D704702E008C8BD
:10211000121F08C1002AFAD170477047002001E061
:1021200001C1121F002AFBD17047000010B50F4CEF
:10213000012211462046FEF782FA012202212046A2
:10214000FEF77DFA012204212046FEF778FA0122EB
:1021500008212046FEF773FA00210548FFF7A4F88E
:10216000BDE8104000210348FFF79EB80010014071
:1021700008010020C80000202DE9F0412B4E2C4D15
:10218000041E4FF4807714DD012202213046FEF751
:1021900056FA002204213046FEF751FA012280212E
:1021A0002846FEF74CFA002239462846FEF747FA41
:1021B0002AE014D1012202213046FEF740FA012222
:1021C00004213046FEF73BFA012280212846FEF723
:1021D00036FA012239462846FEF731FA17E0002286
:1021E00002213046FEF72BFA012204213046FEF789
:1021F00026FA002280212846FEF721FA01223946DC
:102200002846FEF71CFA6442322C00DD32240949CC
:10221000C868096860433222B0FBF2F080B24863BC
:10222000054909684863BDE8F081000000080140E5
:102230000010014008010020C8000020FEF712FA3B
:10224000FFF77CFCFFF7E6FAFFF766FBFFF7F4FB0E
:10225000FFF752FCFFF7B4FBFFF77EFBFFF728FC0C
:102260002AA0FFF775FEFFF761FF01222B492C48DA
:10227000FFF776F92B48FEF7F7FD284C0A20A41F3C
:10228000A060294D4FF48056002731462846FEF7BE
:10229000D1F970B11420FEF7B1F831462846FEF7A7
:1022A000C9F90028F9D10120206120A0FFF750FED4
:1022B000EBE72069012827D0022804D0032815D095
:1022C000042821D017E0207928B96078052809D0A2
:1022D000022804D000BF21796078814200D02079A3
:1022E000607009E01348FEF7BFFDF4E7607918B9A4
:1022F000A078052804D000BFE068FFF73DFFC4E7E1
:102300000C48FEF7B1FDF7E7E760F5E70A48656CB2
:102310006C6F20576F726C64210A00000600002069
:102320008801002048010020000C014053746172B4
:10233000740A000088000020000000000000000077
:10234000010203040607080900000000010203045B
:102350007023000800000020300000000C2100085D
:10236000A023000830000020980500001C21000870
:102370000005050000000000000000000000000053
:10238000000000000000000000000000000000004D
:102390000100000010000000000000000024F40014
:0400000508000131BD
:00000001FF
