:020000040800F2
:10000000D0050020450100080F1A0008ED16000871
:100010000D1A0008C1010008C71F000800000000F9
:10002000000000000000000000000000131A00089B
:10003000C301000800000000111A0008151A00088A
:100040005F0100085F0100085F0100085F01000810
:100050005F0100085F0100085F0100085F01000800
:100060005F0100085F0100085F0100085F010008F0
:100070005F0100085F0100085F0100085F010008E0
:100080005F0100085F0100085F0100085F010008D0
:100090005F0100085F0100085F0100085F010008C0
:1000A0005F0100085F0100085F0100085F010008B0
:1000B000AD1A00085F0100085F0100085F01000839
:1000C0005F0100085F0100085F0100085F01000890
:1000D0005F0100085F0100085F0100085F01000880
:1000E000C50100085F0100085F0100085F0100080A
:1000F0005F0100085F0100085F0100085F01000860
:100100005F0100085F0100085F0100085F0100084F
:100110005D1D00085F010008B91A00085F010008B2
:100120005F0100085F0100085F0100085F0100082F
:10013000DFF80CD000F032F8004800471921000821
:10014000D00500200648804706480047FEE7FEE746
:10015000FEE7FEE7FEE7FEE7FEE7FEE7FEE7FEE777
:10016000651A000831010008D2B201E000F8012B45
:10017000491EFBD270470022F6E710B513460A4627
:1001800004461946FFF7F0FF204610BD421C10F848
:10019000011B0029FBD1801A70470000064C074D57
:1001A00006E0E06840F0010394E807009847103447
:1001B000AC42F6D3FFF7C0FF242300084423000815
:1001C000FEE7704770B5214D2868214E214C800410
:1001D00009D521A001F02AFE306820B1206820490D
:1001E000086000202060286840040CD5306850B1B9
:1001F0001CA001F01BFE2068002802DA20684042A3
:10020000206002203060286800040CD5306850B1AE
:1002100017A001F00BFE20680028206800DD404296
:100220002060032030604FF4805000F0D5F84FF488
:10023000005000F0D1F84FF4804000F0CDF8BDE858
:1002400070404FF4004000F0C7B8000014040140B3
:10025000180000200C0000200A53746F700000008A
:10026000140000200A666F7277617264000000005B
:100270000A6261636B77617264000000704700007E
:100280002DE9F05F90F821100024022903D0042109
:100290008163012485E001680A6822F00E020A6089
:1002A00001680A6822F001020A603F4E3E4FB21513
:1002B000DFF8F4C0DFF8F090DFF8ECA0DFF8E8B08A
:1002C000DFF8E4E00168783F13011502ACF1640C3B
:1002D000A9F15009AAF13C0AABF1280BAEF1140EBA
:1002E0004FF48018B14227D9B9420ED0614512D0DF
:1002F00049451DD0514518D0594518D0714501D1F7
:10030000424615E0294EB14201D1012210E0274EAC
:100310001436B14201D110220AE0244E2836B142EF
:1003200006D0224A3C32914201D11A4600E02A46C8
:100330001E49091F0A602BE0B94213D0614517D04E
:10034000494522D051451DD059451DD0714501D197
:1003500042461AE0B14202D14FF0807215E0134ECE
:10036000B14201D1012210E0104E1436B14201D148
:1003700010220AE00D4E2836B14206D00B4A3C321C
:10038000914201D11A4600E02A46074980394A6065
:10039000012180F82110002180F82010416B01B16B
:1003A00088472046BDE8F09F8000024008040240D4
:1003B00070B5044600F022F90546601C02D00448DE
:1003C0000078044400F01AF9401BA042FAD370BD33
:1003D0002400002070470000044910B50A6802425A
:1003E00002D00860FFF7F6FF10BD000014040140C2
:1003F0002DE9F84FDFF8C891002409F1040A0AF149
:10040000040B23460F270BF1040ED1E00125A54074
:1004100006EA0502AA4276D1DFF8A8C14E68A6EB2B
:100420000C0866452BD00DDC032E34D005DC36B32A
:10043000012E19D0022E2FD11BE0112E16D0122E14
:100440002AD119E0B8F5881F19D006DCB8F5803F2D
:1004500015D0B8F5801F1FD111E0B8F5001F0ED0E0
:10046000B8F5041F18D10AE0CB6815E0CB681B1D56
:1004700012E0CB6808330FE0CB680C330CE08B68DC
:100480002BB1012B4FF0080303D0456104E0042396
:1004900002E0056100E00023FF2A01D8064601E0E2
:1004A00000F104064FEA840501D9A5F12005D6F82C
:1004B000008007FA05FC28EA0C0803FA05F548EA6B
:1004C0000508C6F800804D68ED0070D53E4DAE6958
:1004D00046F00106AE61AD6924F0030605F00105A2
:1004E00000953A4D06EB050CDCF80850A607360FD0
:1004F00007FA06F825EA0805DFF8D480404503D15D
:100500004FF0000825E052E0DFF8C880404502D1F6
:100510004FF001081DE0DFF8C080404502D14FF0E8
:10052000020816E0DFF8B480404502D14FF003081E
:100530000FE0DFF8AC80404502D14FF0040808E03E
:10054000DFF8A080404502D14FF0050801E04FF0F0
:10055000060808FA06F848EA0508CCF808804D684D
:10056000D9F80060ED034D4601D5164300E09643EF
:100570002E604D68DAF80060AD03554601D516438C
:1005800000E096432E604D68DBF80060ED025D46AA
:1005900001D5164300E096432E604D68DEF80060FA
:1005A000AD02754601D5164300E096432E60641CEB
:1005B0000A681646E2407FF429AFBDE8F88F0000D4
:1005C0000004014000001110001002400000014032
:1005D00000080140000C01400010014000140140DF
:1005E00000180140001C01408068084000D0012034
:1005F00070470AB1016170470904FBE70148806850
:1006000070470000240000200248816802781144ED
:100610008160704724000020074810B5016841F050
:1006200010010160032000F075F8002000F006F8CA
:1006300000F024F8002010BD0020024070B50D4DE0
:1006400004464FF47A712878B1FBF0F00A49096842
:10065000B1FBF0F000F060FB48B9102C07D200228B
:100660002146501E00F036F800206C6070BD01205D
:1006700070BD000024000020300000200C4808B5A8
:10068000816941F001018161816901F001010091FD
:10069000C16941F08051C161C06900F08050009093
:1006A0000448416821F0E06141F00071416008BDFB
:1006B0000010024000000140002809DB00F01F028A
:1006C000012191404009800000F1E020C0F80011B4
:1006D00070470000F0B40E4B1B680C46C3F30223B6
:1006E000C3F10705042D00D90425191D072901D2DE
:1006F000002300E0DB1E012606FA05F1491E214019
:1007000099409E40761E16403143F0BC01F05CBC1F
:100710000CED00E0064900F0070208684FF6FF0301
:10072000184040EA0220034A104308607047000066
:100730000CED00E00000FA052DE9F0470F4605003A
:1007400061D0434E306800F00700B84209D23068EB
:1007500020F0070038433060306800F00700B842EE
:1007600051D128683B4C810712D5400703D56068FA
:1007700040F4E06060602878000703D5606840F4CA
:10078000605060606068A96820F0F0000843606015
:100790002878C00728D06868012810D0216802286E
:1007A00010D0890700292EDA616821F00301014386
:1007B0006160FFF723FF804641F288390DE0216830
:1007C0008903EFE78901EDE7FFF718FFA0EB0801C8
:1007D000494502D90320BDE8F0876068696800F0E8
:1007E0000C00B0EB810FEFD1306800F00700B84289
:1007F0000BD9306820F0070038433060306800F0D3
:100800000700B84201D00120E5E72878400705D568
:100810006068E96820F4E0600843606028780007B9
:1008200006D56068296920F4605040EAC100606024
:1008300000F038F86168084AC1F30311515CC84000
:100840000649086006480068FFF7F8FE0020C2E786
:1008500000200240001002400C230008300000205D
:10086000280000200448054900684968044AC1F38B
:100870000221515CC8407047300000200010024047
:100880001C2300080448054900684968044AC1F36C
:10089000C221515CC8407047300000200010024067
:1008A0001C23000812A185B00FC98DE80F0014A009
:1008B000144A006804905168134801F00C03042B9B
:1008C00010D0082B0ED1C1F38343C9031DF80300D8
:1008D0000AD5516804AAC1F34041515C0A4A504309
:1008E000B0FBF1F005B0704708494843FAE7000053
:1008F00002030405060708090A0B0C0D0E0F101061
:10090000010200000010024000127A0000093D00C0
:100910002DE9F84F040070D02078C04DC00749D0B1
:100920006868C0F38100012807D06868C0F38100BF
:10093000022809D16868C00306D52868800339D524
:1009400060680028E7D035E06068B0F5803F0BD0E4
:1009500010B1B0F5A02F11D0286820F480302860A5
:10096000286820F4802002E0286840F48030286065
:10097000606890B1FFF742FE06460AE0286840F43E
:1009800080202860F0E700BFFFF738FE801B642856
:1009900073D828688003F7D50CE0FFF72FFE0646D2
:1009A00005E000BFFFF72AFE801B6428F0D8286806
:1009B0008003F7D420789A4E80074FF001094FF05A
:1009C000000839D5686810F00C0F07D06868C0F3CC
:1009D0008100022809D16868C00306D4286880070E
:1009E00014D52069012808D110E02069B0B1C6F8FB
:1009F0000090FFF703FE074605E00AE1FFF7FEFD62
:100A0000C01B0228C4D828688007F7D52868616908
:100A100020F0F80040EAC10028600DE0C6F8008030
:100A2000FFF7ECFD074604E0FFF7E8FDC01B0228D6
:100A300023D828688007F7D4207800072CD5794878
:100A4000A169D9B1C0F80090FFF7D8FD074604E0CE
:100A5000FFF7D4FDC01B02280FD8686A8007F7D5BE
:100A600071484FF4FA510068B0FBF1F0009000BFFC
:100A70000098411E0091FAD20EE080E0C0F800809C
:100A8000FFF7BCFD074604E0FFF7B8FDC01B0228D6
:100A900075D8686A8007F7D42078400760D5E86980
:100AA0000027C00008D4E86940F08050E861E86998
:100AB000012700F0805000905C480168C90513D4FC
:100AC0000168834641F480710160FFF797FD82461B
:100AD00006E000BFFFF792FDA0EB0A0064284ED8A5
:100AE000DBF80000C005F5D5E06801280AD008B1A0
:100AF000052813D0286A20F001002862286A20F017
:100B0000040002E0286A40F001002862E06841F237
:100B1000883B98B1FFF772FD82460BE0286A40F0EF
:100B200004002862EEE700BFFFF768FDA0EB0A01B2
:100B300059455AD8286A8007F6D50CE0FFF75EFDC4
:100B4000824605E0FFF75AFDA0EB0A0159454CD853
:100B5000286A8007F6D41FB1E86920F08050E86168
:100B6000E06988B36968C1F38101022944D0022891
:100B7000C6F8608004D0FFF741FD044638E034E059
:100B8000FFF73CFD074604E0FFF738FDC01B0228D5
:100B90002BD828688001F7D4206AB0F5803F05D1B2
:100BA0006868A16820F4003008436860D4E908014F
:100BB0000843696821F4741108436860C6F86090BE
:100BC000FFF71CFD044606E025E000BFFFF716FD19
:100BD000001B022809D828688001F7D51BE000BF58
:100BE000FFF70CFD001B022802D90320BDE8F88F97
:100BF00028688001F4D40EE00128F7D06868226AE2
:100C000000F48031914204D1616A00F4701088428E
:100C100001D00120EAE70020E8E7000000100240D0
:100C20000000424280044242300000200070004038
:100C300070B5040005D00025A56294F8510010B1EC
:100C400006E0012070BD84F85050204600F02EF8D8
:100C5000022084F851002068016821F04001016001
:100C6000D4E901010843D4E903121143084361693F
:100C70000843218B01F400710843E1690843216AAC
:100C80000843A16A084321680860A069042101EAB9
:100C90001040216848602068C16921F40061C16189
:100CA0006565012084F85100002070BD10B586B044
:100CB000002100910191029103910068134988423B
:100CC00021D11348816941F480518161816901F426
:100CD00080510491816941F00401816180690D4C6A
:100CE00000F0040004905020009069462046FFF771
:100CF0007FFBA02000900220019003200390694612
:100D00002046FFF775FB06B010BD00000030014023
:100D1000001002400008014010B5401EB0F1807F75
:100D200001D3012010BD4FF0E02460610F21601756
:100D300001F04AF90020A06107202061002010BDC9
:100D40007047704770B590F83C20012A19D00124F3
:100D500000F83C4F0222427050F83C3C5A689D68B3
:100D600022F070060A684968324325F0800529435D
:100D70005A6050F83C2C9160447000210170084684
:100D800070BD022070BD10B5040003D094F83D0082
:100D900010B107E0012010BD002084F83C0020467F
:100DA00000F00CF8022084F83D00211D206800F0BE
:100DB00089FE012084F83D00002010BD08B50168BF
:100DC0001448B1F1804F14D0134A914220D1C16927
:100DD00041F01001C161C069002200F010000090D4
:100DE00001213620FFF776FC3620BDE80840FFF7EA
:100DF00063BCC16941F00101C161C069002200F01A
:100E00000100009002211C20FFF764FC1C20ECE78D
:100E100008BD000000100240001000400168CA68D0
:100E200042F00102CA600068816801F007010629EA
:100E300003D0016841F0010101600020704770B5E6
:100E4000044690F83C00012817D0012584F83C5056
:100E5000022084F83D002068826822F0770222F4A4
:100E60007F4282600868502830D00DDC20284DD0A9
:100E700005DC98B310283BD148E0022070BD302833
:100E800044D0402834D139E0602828D0702806D0DA
:100E9000B0F5805F2CD0B0F5005F29D10AE0CB68B7
:100EA000D1E90121206800F060FE2068816841F0EE
:100EB000770109E0CB68D1E90121206800F055FEF7
:100EC0002068816841F48041816011E0CA68496806
:100ED000206800F01FFF5021206807E016E0CA6874
:100EE0004968206800F027FF6021206800F047FE75
:100EF00084F83D50002084F83C0070BDCA68496801
:100F0000206800F007FF40212068EFE722680146D3
:100F10001046EBE7704770B50446006801694FF072
:100F20000005C943890715D4C168C943890711D48D
:100F3000E91E016101202077206880698007204632
:100F400002D0FFF7E7FF04E000F0E2F8204600F0EF
:100F500083F9257720680169C943490717D4C16817
:100F6000C943490713D46FF00401016102202077BF
:100F70002068806910F4407F204602D0FFF7CAFF46
:100F800004E000F0C5F8204600F066F925772068F7
:100F90000169C943090716D4C168C943090712D4B6
:100FA0006FF008010161042020772068C069800784
:100FB000204602D0FFF7AEFF04E000F0A9F820467B
:100FC00000F04AF9257720680169C943C90617D49A
:100FD000C168C943C90613D46FF01001016108202C
:100FE00020772068C06910F4407F204602D0FFF7C8
:100FF00091FF04E000F08CF8204600F02DF92577F1
:1010000020680169C943C90708D1C168C943C90734
:1010100004D1891E0161204600F042F9206801696F
:10102000C943090609D4C168C943090605D46FF04C
:10103000800101612046FFF783FE20680169C943F2
:10104000490609D4C168C943490605D46FF0400177
:101050000161204600F062F920680169C9438906F0
:101060000BD4C168C943890607D46FF02001016120
:101070002046BDE87040FFF764BE70BD00B585B086
:10108000002100910191029103911B4B02681B48C2
:1010900002219A421AD1826942F01002826180696B
:1010A000039100F0100004904020CDE90001694652
:1010B0001348FFF79DF91348416821F4406141F05E
:1010C000E06141F44061416005B000BD0E4B9A42C1
:1010D000FAD1826942F004028261806900F0040062
:1010E00004900120CDE900010320039069460748E0
:1010F000FFF77EF9E8E7000000040040001002401E
:101100000010014000000140000C004000080140B8
:10111000704770B5044690F83C000D4601280DD08C
:10112000012684F83C60022084F83D0042B1042A84
:1011300018D0082A2AD00C2A4DD139E0022070BDDF
:10114000206800F025FD2068816941F00801816177
:101150002068816921F004018161206881692A6920
:10116000114311E0206800F043FD2068816941F4DB
:10117000006181612068816921F48061816120685A
:1011800081692A6941EA0221816124E0206800F036
:1011900065FD2068C16941F00801C1612068C1692D
:1011A00021F00401C1612068C1692A69114311E07D
:1011B000206800F087FD2068C16941F40061C161C9
:1011C0002068C16921F48061C1612068C1692A6910
:1011D00041EA0221C16184F83D60002084F83C00AE
:1011E00070BD10B5040003D094F83D0010B107E0C5
:1011F000012010BD002084F83C00204600F00CF8CF
:10120000022084F83D00211D206800F05BFC0120D5
:1012100084F83D00002010BD08B50C4A01680C4858
:10122000914207D1C16941F00201C161C06900F07A
:10123000020009E0074A914207D1C16941F0080163
:10124000C161C06900F00800009008BD00040040C2
:1012500000100240000C00407047000010B504462A
:101260000068012200F074FC0B492068884202D01B
:101270000A49884203D1416C41F40041416420682D
:10128000816801F00701062903D0016841F00101DE
:101290000160002010BD0000002C0140003401401E
:1012A00070B51A4A01681A4C126891420ED1216930
:1012B000E2689142216901DA491C06E0E268914244
:1012C00001D1E16801E02169491E216111490068ED
:1012D0000968884218D1104D02212846FFF784F989
:1012E000064601212846FFF77FF946EA40002070B4
:1012F00004212846FFF778F90646E9142846FFF747
:1013000073F946EA4000607070BD00008C00002058
:10131000000000204C010020000C01407047704785
:1013200070B5026804461068D168536910F00F0F59
:1013300050D003F0010501F4907635435DD0C2072B
:1013400005D0CA0503D5E26B42F00102E263420711
:1013500005D5DA0703D0E26B42F00202E2638207AE
:1013600005D5DA0703D0E26B42F00402E26302071C
:1013700005D5DA0703D0E26B42F00802E263E26BC4
:10138000002A33D0800604D5880602D5204600F016
:1013900001FD20684069E16BC0F38010090700D4AB
:1013A00028B3204600F0E8FC2068416949061AD5B8
:1013B000416921F040014161606BA0B11B4941636B
:1013C000606BFEF75DFF002810D0606B416BBDE8DD
:1013D00070400847830610D58B060ED52046BDE821
:1013E000704000F0D7BC2046FFF799FF70BD204643
:1013F000FFF795FF0020E06370BD030606D50B06DE
:1014000004D52046BDE8704000F07ABD4006F3D513
:101410004806F1D5D168204621F04001D160202155
:1014200084F8391000F061F970BD0000691D0008F2
:1014300070B5040004D094F83900002510B106E01E
:10144000012070BD84F83850204600F023F8242095
:1014500084F839002068C16821F40051C160204639
:1014600000F0F2FC2068016921F4904101612068DC
:10147000416921F02A0141612068C16841F40051AD
:10148000C160E563202084F8390084F83A00002028
:1014900070BD000030B585B0002400940194029422
:1014A00003940068184988422CD11848C16941F456
:1014B0000021C161C16901F400210491816941F0F9
:1014C000100181618069124D00F0100004904FF40A
:1014D0008060009002200190032003906946284616
:1014E000FEF786FFE814CDE9000469462846029419
:1014F000FEF77EFF002211463420FFF7EBF8342080
:10150000FFF7DAF805B030BD004C00400010024093
:101510000010014090F83A30202B22D1F9B1F2B1FD
:1015200090F83830012B1CD081628285C285002161
:10153000C163222280F83A2080F838100168CA6816
:1015400042F48072CA6001684A6942F001024A614D
:101550000068C16841F02001C1600020704701208F
:10156000704702207047000030B42E490068002206
:101570000968884253D12C48002400F11C010379EA
:1015800023B98C54521CD2B2082AFAD3264A521DCF
:101590001278582A03D0CA545B1C037102E004710C
:1015A000012282600A78532A26D000224B78502BE1
:1015B00024D000231A408B78452B21D000231A40D9
:1015C0000B79442B1ED000231A4220D04A79CB79C4
:1015D000303A02EBC20404EB021203EB8202897977
:1015E000124B01EB810103EB41011144C1604169E0
:1015F000322909DD322108E00122D7E70123D9E7AA
:101600000123DCE70123DFE7C168C16000E000BF20
:101610000122054930BC491D0248FFF77BBF30BCA1
:10162000704700008C01002000000020F0FDFFFF4B
:101630002DE9F843044690F839001F4616460D463A
:10164000202850D1A5B19EB194F8380001284AD085
:10165000012084F838004FF00008C4F83C802120B5
:1016600084F83900FEF7CAFFA6848146E68426E0A6
:101670000120BDE8F883E08C401EE084A0684B4662
:10168000B0F5805F4FF000024FF0800120460097D8
:1016900003D000F066FCE8B90DE000F062FCC8B9C8
:1016A00028882168C0F308004860206908B16D1CD3
:1016B00005E0AD1C03E0216815F8010B4860E08CE3
:1016C0000028D8D14B46002240212046009700F048
:1016D00048FC08B10320CCE7202084F8390084F8C6
:1016E00038800020C5E70220C3E77047FEE700000E
:1016F0002DE9F04385B00024384800940194029409
:101700000394816941F010018161816901F0100148
:101710000491816941F020018161816901F020011A
:101720000491816941F004018161816901F0040142
:101730000491816941F0080181618069DFF8A0802E
:1017400000F008004FF2BF350490002229464046C1
:10175000FEF74FFFDFF88C9049F20E070022394662
:101760004846FEF746FF0095022601250396CDE97F
:10177000015469464046FEF73BFE00970396CDE9CB
:10178000015469464846FEF733FE40F60740CDE96E
:101790000004154D694628460294FEF729FE4FF4D1
:1017A000405000901148CDE9010469462846FEF7F3
:1017B0001FFE4FF4404000900D48CDE901046946FA
:1017C0002846FEF715FE002211462820FEF782FF6C
:1017D0002820FEF771FF05B0BDE8F083001002403D
:1017E0000010014000080140000C014000002110E1
:1017F000000011100E4810B50C4901604FF48271C1
:10180000416000218160C160016141618161C1610C
:101810000162416281620A21C162FFF709FA002870
:1018200003D0BDE81040FEF729BD10BD00300140D7
:101830003400002010B586B00024174800940194AD
:101840000294039404944FF080410594016040F2A7
:101850003F61C0E9011440F2CF71C0E90314802157
:101860008161FFF790FA08B1FEF708FD4FF4805050
:10187000009069460848FFF7E2FA08B1FEF7FEFC5F
:10188000049404A904480594FFF75CFA002801D0E9
:10189000FEF7F4FC06B010BD8C00002010B58AB035
:1018A000002407941C2168460894FEF764FC18483D
:1018B0001649016040F24911C0E9011440F2E731D4
:1018C000C0E9031480218161FFF78BFC08B1FEF7AA
:1018D000D5FC2020CDE9070407A90D48FFF732FA0F
:1018E00008B1FEF7CBFC6020CDE900040294002291
:1018F000694607480494FFF70CFC08B1FEF7BEFCEC
:101900000348FFF7BBFB0AB010BD00000004004015
:10191000CC00002010B58AB0002407941C21684632
:101920000894FEF728FC18481649016040F2491156
:10193000C0E9011440F2E731C0E90314802181615C
:10194000FFF74FFC08B1FEF799FC2020CDE9070412
:1019500007A90D48FFF7F6F908B1FEF78FFC6020E4
:10196000CDE9000402940022694607480494FFF779
:10197000D0FB08B1FEF782FC0348FFF77FFB0AB0FB
:1019800010BD0000000C00400C0100201CB500241C
:101990000F4800940D490194016040F23F61C0E995
:1019A000011440F2E7318461C160FFF7ECF908B13E
:1019B000FEF764FC0094694605480194FFF7C2F9FC
:1019C000002801D0FEF75AFC1CBD000000100040AA
:1019D0004C0100200C4810B50A4901604FF4E13178
:1019E0004160002181600C22C160C0E90412816164
:1019F000C161FFF71DFD002803D0BDE81040FEF7D0
:101A00003DBC10BD004C00408C010020FEE770473B
:101A100070477047FEF7F8BD30B58FB02821684693
:101A2000FEF7A9FB14210AA8FEF7A5FB022401205A
:101A3000049000941020059000254FF4C010CDE9CB
:101A4000085007946846FEF763FF0F20CDE90A04AB
:101A50008020CDE90C0501210AA80E95FEF76CFE49
:101A60000FB030BD0D48016841F0010101604168CF
:101A70000B4A1140416001680A4A11400160016847
:101A800021F480210160416821F4FE0141604FF49E
:101A90001F0181600449C0030860704700100240C4
:101AA0000000FFF8FFFFF6FE08ED00E00148FFF739
:101AB00032BA00008C0000200148FFF72CBA000069
:101AC0004C010020F0B502681C4B1D4D1D4E1E4FF1
:101AD0001E4C4FF0804C984209D0A04207D0604580
:101AE00005D0A84203D0B04201D0B84204D122F0C0
:101AF000700E4A6842EA0E02984209D0A04207D00E
:101B0000604505D0A84203D0B04201D0B84203D10D
:101B100022F44075CA682A434D6922F080022A43A4
:101B200002608A68C2620A688262984201D0A0425A
:101B300001D10969016301214161F0BD002C01401F
:101B40000004004000080040000C00400034014048
:101B500010B501F01F030121046A99408C4304620F
:101B6000016A9A401143016210BD10B5846842EACF
:101B7000032224F47F440A432243826010BD82681A
:101B800022F070020A4342F00701816070470000B2
:101B9000F0B5026A22F001020262036A42688469B7
:101BA000124E24F073050C682C4323F002058B6859
:101BB0002B430D4DA84201D0B04205D123F00807B8
:101BC000CB683B4323F00403A84201D0B04205D1C7
:101BD0004D6922F4407215438A692A434260846148
:101BE000496841630362F0BD002C014000340140AC
:101BF000F0B5026A22F010020262026A4368846948
:101C00000D6824F4E64444EA05248D6822F020029D
:101C100042EA05120F4D104EA84201D0B04206D143
:101C2000CF6822F0800242EA071222F04002A84266
:101C300001D0B04207D14D6923F4406343EA8503E4
:101C40008D6943EA85034360846149688163026268
:101C5000F0BD0000002C014000340140F0B5026AE4
:101C600022F480720262026A4368C46922F400723C
:101C700024F073050C68124E2C438D6842EA05224D
:101C80000E4DA84201D0B04206D1CF6822F40062C6
:101C900042EA072222F48062A84201D0B04207D172
:101CA0004D6923F4405343EA05138D6943EA051354
:101CB0004360C4614968C1630262F0BD002C014009
:101CC0000034014030B5026A22F480520262046A94
:101CD0004268C3690D6823F4E64343EA05238D682F
:101CE00024F4005444EA0534084DA84202D0084DBB
:101CF000A84204D14D6922F4804242EA8512426032
:101D0000C36149680164046230BD0000002C0140D9
:101D10000034014010B5036A046A24F0010404622F
:101D2000846924F0F00444EA021423F00A020A430E
:101D30008461026210BD10B5036A23F010030362D0
:101D40008369046A23F4704343EA023224F0A00357
:101D500043EA01118261016210BD00000148FFF7F2
:101D6000DFBA00008C01002010B5406A0021C18557
:101D7000C184FFF7D4FA10BD0168CA6822F49072DA
:101D8000CA6001684A6922F001024A61202180F894
:101D90003A10704710B590F83A10222901D002206D
:101DA00010BD8168B1F5805F11D00169002901681B
:101DB0001FD0496801F07F03816A4A1C82620B7060
:101DC000C18D491E0904090CC18518D02BE0026998
:101DD000816A002A0268526805D0D2B20A80816AFC
:101DE000491C8162ECE7C2F308020A80816A891CFF
:101DF000F7E74A68816A4B1C83620A70E0E7016872
:101E0000CA6822F02002CA600168CA6822F480729F
:101E1000CA6001684A6922F001024A61202180F803
:101E20003A10FFF7A1FB002010BD000010B50446DA
:101E3000FEF7ACF9214682B2BDE810400A23014802
:101E4000FFF7F6BB8C0100202DE9F0410446006845
:101E50000169E26821F44051114301612169A068E0
:101E60000843616908432168CA6841F20C639A43D8
:101E70000243CA6020684169A26921F4407111439C
:101E800041611E49206864253226884202D1FEF74E
:101E9000F9FC01E0FEF7E6FC00EBC00101EB0011EC
:101EA00060686FF018078000B1FBF0F2B2FBF5F24A
:101EB000B1FBF0F37A4303EB8202B1FBF0F306EBE4
:101EC0000212B2FBF5F2B3FBF5F302F0F00202EB03
:101ED0000312B1FBF0F3B1FBF0F0B0FBF5F0784387
:101EE00003EB800006EB0010B0FBF5F0216800F07A
:101EF0000F0010448860BDE8F08100000038014008
:101F000090F83910212901D0022070478168B1F57D
:101F1000805F016A0BD04A1C026202680978516036
:101F2000C18C491E0904090CC1840ED017E0098830
:101F30000268C1F30801516001690029016A02D0F9
:101F4000491C0162ECE7891CFBE70168CA6822F0C2
:101F50008002CA600068C16841F04001C160002091
:101F600070472DE9F041984617460E460446069DF7
:101F70001DE0681C1BD02DB1FEF740FBA0EB080054
:101F8000A84214D92068C16821F4D071C1602068CA
:101F9000416921F001014161202084F8390084F871
:101FA0003A00002084F838000320BDE8F081206862
:101FB000006836EA000004D00020B842D9D00020E2
:101FC000F3E70120F9E7FEE70907090E002804DB23
:101FD00000F1E02080F80014704700F00F0000F1DD
:101FE000E02080F8141D704702E008C8121F08C1E5
:101FF000002AFAD170477047002001E001C1121F8A
:10200000002AFBD17047000010B50F4C0122114689
:102010002046FEF7EEFA012202212046FEF7E9FAF9
:10202000012204212046FEF7E4FA0122082120467D
:10203000FEF7DFFA00210548FFF710F9BDE8104070
:1020400000210348FFF70AB9001001400C010020ED
:10205000CC0000202DE9F0412B4E2C4D041E4FF4F6
:10206000807714DD012202213046FEF7C2FA0022F9
:1020700004213046FEF7BDFA012280212846FEF7F2
:10208000B8FA002239462846FEF7B3FA2AE014D1FE
:10209000012202213046FEF7ACFA0122042130462B
:1020A000FEF7A7FA012280212846FEF7A2FA0122B4
:1020B00039462846FEF79DFA17E0002202213046F5
:1020C000FEF797FA012204213046FEF792FA002229
:1020D00080212846FEF78DFA012239462846FEF770
:1020E00088FA6442322C00DD32240949C868096844
:1020F00060433222B0FBF2F080B2486305490968C0
:102100004863BDE8F0810000000801400010014074
:102110000C010020CC000020FEF77EFAFFF77CFCCB
:10212000FFF7E6FAFFF766FBFFF7F4FBFFF752FC59
:10213000FFF7B4FBFFF77EFBFFF728FC62A0FFF779
:1021400075FEFFF761FF012263496448FFF7E2F97A
:102150006348FEF763FE604C0A20641FE060614D37
:102160004FF48056002731462846FEF73DFA70B1FD
:102170001420FEF71DF931462846FEF735FA0028EF
:10218000F9D10120A06158A0FFF750FEEBE7A0694C
:10219000012805D002280BD0032809D000BFE2E7B0
:1021A0002761207861780328FDD10329FBD1DAE784
:1021B0004F48FEF733FEA069022802D003283ED024
:1021C00079E02078E0B1012815D0022802D0032858
:1021D00029D125E0A07810B1032807D023E0E068DA
:1021E0006061E06800EBD070401007E0E76041A05C
:1021F000FFF71CFE17E0A078A8B96069E06016E060
:10220000A078052813D0022802D0012806D00AE0C1
:102210002069E16888420ADD2069EFE7676106E02E
:10222000A078022806D02078A178884243D0207870
:10223000A07040E0E0686061E0684042DEE76078FE
:10224000E8B1012816D0022802D003282DD128E0B9
:10225000E07810B1032807D027E0E0686061E0680B
:1022600000EBD070401008E00520E07021A0FFF7DF
:10227000DDFD1AE0E078C0B96069E06019E0E0785F
:10228000052804D0022804D0012808D00DE02761D9
:102290000FE02069E16888420BDA2069EDE76761A9
:1022A00007E0E07802280AD000BF6078E178884231
:1022B00001D06078E0702069FFF7CCFE53E7E0685A
:1022C0006061E0684042D8E768656C6C6F20776FAA
:1022D000726C64210A000000050000208C010020BF
:1022E0004C010020000C0140537461727400000026
:1022F0008C0000207761697420666F72206E6578AB
:102300007420636F6D6D616E640A00000000000050
:102310000000000001020304060708090000000095
:1023200001020304442300080000002034000000E0
:10233000E81F000878230008340000209C050000F6
:10234000F81F000800000505000000000000000064
:10235000000000000000000000000000000000007D
:10236000000000000000000001000000100000005C
:08237000000000000024F4004D
:0400000508000131BD
:00000001FF
